{
  "contractName": "Lending",
  "abi": [
    {
      "constant": false,
      "inputs": [
        {
          "name": "lender",
          "type": "address"
        },
        {
          "name": "borrower",
          "type": "address"
        }
      ],
      "name": "getLendingDetails",
      "outputs": [
        {
          "name": "",
          "type": "uint256"
        }
      ],
      "payable": false,
      "stateMutability": "nonpayable",
      "type": "function"
    },
    {
      "constant": false,
      "inputs": [
        {
          "name": "lender",
          "type": "address"
        },
        {
          "name": "borrower",
          "type": "address"
        },
        {
          "name": "amount",
          "type": "uint256"
        }
      ],
      "name": "lendingDetailsBetweenParties",
      "outputs": [
        {
          "name": "",
          "type": "uint256"
        }
      ],
      "payable": false,
      "stateMutability": "nonpayable",
      "type": "function"
    },
    {
      "constant": false,
      "inputs": [
        {
          "name": "lender",
          "type": "address"
        },
        {
          "name": "borrower",
          "type": "address"
        },
        {
          "name": "repaymentAmountOnEachIteration",
          "type": "uint256"
        }
      ],
      "name": "repaymentDetailsBetweenParties",
      "outputs": [
        {
          "name": "",
          "type": "bool"
        }
      ],
      "payable": false,
      "stateMutability": "nonpayable",
      "type": "function"
    },
    {
      "constant": false,
      "inputs": [
        {
          "name": "lender",
          "type": "address",
          "indexed": true
        },
        {
          "name": "borrower",
          "type": "address",
          "indexed": true
        },
        {
          "name": "amount",
          "type": "uint256",
          "indexed": false
        }
      ],
      "name": "lendingDetailsBetweenLenderAndBorrower",
      "outputs": [
        {
          "name": "",
          "type": "bool"
        }
      ],
      "payable": false,
      "stateMutability": "nonpayable",
      "type": "event",
      "anonymous": false
    },
    {
      "anonymous": false,
      "inputs": [
        {
          "indexed": false,
          "name": "lender",
          "type": "address"
        },
        {
          "indexed": false,
          "name": "borrower",
          "type": "address"
        },
        {
          "indexed": false,
          "name": "amount",
          "type": "uint256"
        },
        {
          "indexed": false,
          "name": "time",
          "type": "uint256"
        }
      ],
      "name": "repaymentDetails",
      "type": "event"
    },
    {
      "anonymous": false,
      "inputs": [
        {
          "indexed": false,
          "name": "lender",
          "type": "address"
        },
        {
          "indexed": false,
          "name": "borrower",
          "type": "address"
        },
        {
          "indexed": false,
          "name": "amount",
          "type": "uint256"
        },
        {
          "indexed": false,
          "name": "time",
          "type": "uint256"
        }
      ],
      "name": "repaymentDetails",
      "type": "event"
    }
  ],
  "bytecode": "0x6060604052341561000f57600080fd5b6109508061001e6000396000f300606060405260043610610057576000357c0100000000000000000000000000000000000000000000000000000000900463ffffffff1680635fff83611461005c578063cd3f9399146100c8578063e406fe3c1461013d575b600080fd5b341561006757600080fd5b6100b2600480803573ffffffffffffffffffffffffffffffffffffffff1690602001909190803573ffffffffffffffffffffffffffffffffffffffff169060200190919050506101b6565b6040518082815260200191505060405180910390f35b34156100d357600080fd5b610127600480803573ffffffffffffffffffffffffffffffffffffffff1690602001909190803573ffffffffffffffffffffffffffffffffffffffff1690602001909190803590602001909190505061023c565b6040518082815260200191505060405180910390f35b341561014857600080fd5b61019c600480803573ffffffffffffffffffffffffffffffffffffffff1690602001909190803573ffffffffffffffffffffffffffffffffffffffff16906020019091908035906020019091905050610430565b604051808215151515815260200191505060405180910390f35b60008060008473ffffffffffffffffffffffffffffffffffffffff1673ffffffffffffffffffffffffffffffffffffffff16815260200190815260200160002060008373ffffffffffffffffffffffffffffffffffffffff1673ffffffffffffffffffffffffffffffffffffffff16815260200190815260200160002054905092915050565b6000806000808673ffffffffffffffffffffffffffffffffffffffff1673ffffffffffffffffffffffffffffffffffffffff16815260200190815260200160002060008573ffffffffffffffffffffffffffffffffffffffff1673ffffffffffffffffffffffffffffffffffffffff1681526020019081526020016000205411156102c657600080fd5b816000808673ffffffffffffffffffffffffffffffffffffffff1673ffffffffffffffffffffffffffffffffffffffff16815260200190815260200160002060008573ffffffffffffffffffffffffffffffffffffffff1673ffffffffffffffffffffffffffffffffffffffff168152602001908152602001600020819055508273ffffffffffffffffffffffffffffffffffffffff168473ffffffffffffffffffffffffffffffffffffffff167f3dba6fa999eb1a0f3cc3c12d4ae6aa0d5543a0c89cbaf3ad4b5c228968cb29b0846040518082815260200191505060405180910390a36000808573ffffffffffffffffffffffffffffffffffffffff1673ffffffffffffffffffffffffffffffffffffffff16815260200190815260200160002060008473ffffffffffffffffffffffffffffffffffffffff1673ffffffffffffffffffffffffffffffffffffffff1681526020019081526020016000205490509392505050565b60008060008060008773ffffffffffffffffffffffffffffffffffffffff1673ffffffffffffffffffffffffffffffffffffffff16815260200190815260200160002060008673ffffffffffffffffffffffffffffffffffffffff1673ffffffffffffffffffffffffffffffffffffffff16815260200190815260200160002054111561091b576000836000808873ffffffffffffffffffffffffffffffffffffffff1673ffffffffffffffffffffffffffffffffffffffff16815260200190815260200160002060008773ffffffffffffffffffffffffffffffffffffffff1673ffffffffffffffffffffffffffffffffffffffff168152602001908152602001600020540311156106f157826000808773ffffffffffffffffffffffffffffffffffffffff1673ffffffffffffffffffffffffffffffffffffffff16815260200190815260200160002060008673ffffffffffffffffffffffffffffffffffffffff1673ffffffffffffffffffffffffffffffffffffffff168152602001908152602001600020600082825403925050819055507f06a2cb1c0c391e287007371b269eae6707fefe3ce14636c45b6b2f31a9b27f0d84866000808973ffffffffffffffffffffffffffffffffffffffff1673ffffffffffffffffffffffffffffffffffffffff16815260200190815260200160002060008873ffffffffffffffffffffffffffffffffffffffff1673ffffffffffffffffffffffffffffffffffffffff1681526020019081526020016000205442604051808573ffffffffffffffffffffffffffffffffffffffff1673ffffffffffffffffffffffffffffffffffffffff1681526020018473ffffffffffffffffffffffffffffffffffffffff1673ffffffffffffffffffffffffffffffffffffffff16815260200183815260200182815260200194505050505060405180910390a16000915061091c565b6000808673ffffffffffffffffffffffffffffffffffffffff1673ffffffffffffffffffffffffffffffffffffffff16815260200190815260200160002060008573ffffffffffffffffffffffffffffffffffffffff1673ffffffffffffffffffffffffffffffffffffffff16815260200190815260200160002054905060008060008773ffffffffffffffffffffffffffffffffffffffff1673ffffffffffffffffffffffffffffffffffffffff16815260200190815260200160002060008673ffffffffffffffffffffffffffffffffffffffff1673ffffffffffffffffffffffffffffffffffffffff168152602001908152602001600020819055507f06a2cb1c0c391e287007371b269eae6707fefe3ce14636c45b6b2f31a9b27f0d84866000808973ffffffffffffffffffffffffffffffffffffffff1673ffffffffffffffffffffffffffffffffffffffff16815260200190815260200160002060008873ffffffffffffffffffffffffffffffffffffffff1673ffffffffffffffffffffffffffffffffffffffff1681526020019081526020016000205442604051808573ffffffffffffffffffffffffffffffffffffffff1673ffffffffffffffffffffffffffffffffffffffff1681526020018473ffffffffffffffffffffffffffffffffffffffff1673ffffffffffffffffffffffffffffffffffffffff16815260200183815260200182815260200194505050505060405180910390a16001915061091c565b5b5093925050505600a165627a7a72305820f14e6fd41e8d994354d5fbe25b171772964ebd9fb1e89f7be2ba83b43be198550029",
  "source": "pragma solidity ^0.4.18;\r\n\r\n\r\ncontract Lending{\r\n    \r\n    mapping (address => mapping(address => uint256)) lendingDetails;\r\n    event lendingDetailsBetweenLenderAndBorrower(address indexed lender, address indexed borrower, uint256 amount);\r\n    event repaymentDetails(address lender,address borrower,uint256 amount,uint time);\r\n\t\r\n\t//It stores the lended money by lender to the borrower.\r\n    function lendingDetailsBetweenParties(address lender,address borrower,uint amount)  returns (uint256) {\r\n        \r\n    if(lendingDetails[lender][borrower] > 0) \r\n        throw;\r\n     else {\r\n        lendingDetails[lender][borrower]=amount;\r\n        lendingDetailsBetweenLenderAndBorrower(lender,borrower,amount);\r\n     }\r\n     \r\n     return lendingDetails[lender][borrower];\r\n     \r\n    }\r\n    \r\n\t//It returns the amount currently lended by borrower.\r\n    function getLendingDetails(address lender,address borrower) returns (uint256) {\r\n        return lendingDetails[lender][borrower];\r\n    }\r\n    \r\n    \r\n\t//Repayment being done from borrower to lender account\r\n    function repaymentDetailsBetweenParties(address lender,address borrower,uint256 repaymentAmountOnEachIteration) returns (bool){\r\n        \r\n        if(lendingDetails[lender][borrower] > 0){\r\n            \r\n        \r\n            if((lendingDetails[lender][borrower] - repaymentAmountOnEachIteration) > 0){ //to check underflow\r\n                lendingDetails[lender][borrower]-=repaymentAmountOnEachIteration;\r\n                repaymentDetails(borrower,lender,lendingDetails[lender][borrower],now);\r\n                return false;\r\n            }\r\n            else{\r\n                uint256 temp=lendingDetails[lender][borrower];\r\n                lendingDetails[lender][borrower]=0;\r\n                \r\n                repaymentDetails(borrower,lender,lendingDetails[lender][borrower],now);\r\n                return true;\r\n        }\r\n        \r\n                \r\n        \r\n        }\r\n        \r\n    }\r\n    \r\n    \r\n    \r\n    \r\n    \r\n    \r\n}",
  "sourcePath": "F:\\ethereum\\truffle\\contracts\\Lending.sol",
  "compiler": {
    "name": "solc",
    "version": "0.4.18+commit.9cf6e910.Emscripten.clang"
  },
  "schemaVersion": "1.0.1",
  "updatedAt": "2017-12-13T19:57:46.615Z"
}